:03000000020108F2
:0C010800787FE4F6D8FD75810C0200ED54
:0D00FB0048656C6C6F20576F726C642100BB
:0E00ED001200A27BFF7A0079FB12004580FE14
:10000300D2927F017E00120025C2927F0A12002540
:10001300E9540FC454F0FFE5A0540F4FF5A0D2925A
:020023007F015B
:10002500E4FDFCC3ED9FEC9E5015E4FBFA0BBB0011
:0F003500010AEB647D4A70F50DBD00010C80E4FB
:010044002299
:1000BD00A907E954F0FFE5A0540F4FF5A0C2901227
:0800CD000003C2920F0200259E
:1000D500A907E954F0FFE5A0540F4FF5A0D29012FF
:0800E5000003C2920F02002586
:060045008B088A09890AFC
:10004B00E4F50BF50CAB08AA09A90A850C82850B04
:10005B0083120075FFFD3395E04D600D1200D50541
:09006B000CE50C70E0050B80DCD3
:010074002269
:1000A2007F021200BD7F281200BD7F0C1200BD7FAF
:0B00B200011200BD7F027E000200254D
:10007500BB010CE58229F582E5833AF583E0225040
:1000850006E92582F8E622BBFE06E92582F8E2228A
:0D009500E58229F582E5833AF583E49322A4
:00000001FF
