:030000000200C13A
:0C00C100787FE4F6D8FD75810C020097F2
:0600CD0048656C6C6F0039
:0E0097001200887BFF7A0079CD12000380FEF4
:080060008FA0D2927F017E0007
:10006800E4FDFCC3ED9FEC9E5015E4FBFA0BBB00CE
:0F007800010AEB647D4A70F50DBD00010C80E4B8
:010087002256
:0E00A500C291C290120060C2927F03020068F6
:0E00B300C291D290120060C2927F03020068D8
:060003008B088A09890A3E
:10000900E4F50BF50CAB08AA09A90A850C82850B46
:1000190083120033FFFD3395E04D600D1200B305E7
:090029000CE50C70E0050B80DC15
:0100320022AB
:0F0088007F381200A57F0C1200A57F010200A592
:10003300BB010CE58229F582E5833AF583E0225082
:1000430006E92582F8E622BBFE06E92582F8E222CC
:0D005300E58229F582E5833AF583E49322E6
:00000001FF
